:060000000A128A11FC2F18
:100270004130831203139F008030831603139F00C5
:100280000800F0007003031D462947294C298312FA
:1002900003130814881050298312031308108814BC
:1002A0000800F1007108F00002300310F00CFF3E6E
:1002B000031D55297008831203139500CF3097054D
:1002C00071080339F00003300310F00DFF3E031DE9
:1002D00064290310700D97040800F800F401F5017B
:1002E0007008F200F3017208F6007308F700781C3A
:1002F0007A297B2981297608F4070318F50A7708FB
:10030000F50701300310F60DF70DFF3E031D82299E
:100310000310F80C7808031D8E298F29772975089A
:10032000F1007408F0000800F400C53083120313D4
:100330009F057408F20002300310F20DFF3E031D0A
:100340009C290310720D9F040630F3003030F20038
:10035000F20BA829F30BA8290000831203131F1521
:100360001F19B329B429B0291E08F10083160313FD
:100370001E08F0000800831203132008A4002108BF
:10038000A5002208A6002308A70002300310A40D30
:10039000A50DA60DA70DFF3E031DC6292708F300D6
:1003A0002608F2002508F1002408F0000030F700CC
:1003B0007A30F6001230F5000030F4000A128A118B
:1003C00009220A128A117008FF3E83120313A80043
:1003D00071080318013EFF3EA900013029020030D8
:1003E00003192802031CF529F629FA29FF30A80071
:1003F0000030A90028088316031392008312031308
:100400009101803095000C30970004309200121555
:1004100008000030FC000030FB000030FA00003023
:10042000F90073087204710470040319182A192A58
:10043000642A0130FD00272A0130F8000310F00D76
:10044000F10DF20DF30DF80B1E2A0130FD07F31F1D
:100450002A2A2B2A1C2A0130F8000310F90DFA0D64
:10046000FB0DFC0DF80B2D2A73087702031D422AA1
:1004700072087602031D422A71087502031D422A82
:1004800070087402031C452A462A552A7008F40293
:100490007108031C710FF5027208031C720FF6023B
:1004A0007308031C730FF702791401300310F30C67
:1004B000F20CF10CF00CFF3E031D562A0130FD0238
:1004C000031D632A642A2B2A7C08F3007B08F200B0
:1004D0007A08F1007908F000080000307005F80093
:1004E00000307105F90080307205FA007F30730525
:1004F000FB007B087A0479047804031D802A812A92
:10050000892A0030F3000030F2000030F1000030A2
:10051000F00000307405F80000307505F9008030F7
:100520007605FA007F307705FB007B087A047904B2
:100530007804031D9C2A9D2AA52A0030F70000306C
:10054000F6000030F5000030F400F31FA82AA92AB5
:10055000CD2A0030F8000030F9000030FA00803079
:10056000FB007008F8027108031C710FB82AB92A41
:10057000F9027208031C720FBE2ABF2AFA0273081E
:10058000031C730FC42AC52AFB027B08F3007A08F8
:10059000F2007908F1007808F000F71FD02AD12A7C
:1005A000F52A0030F8000030F9000030FA00803001
:1005B000FB007408F8027508031C750FE02AE12A95
:1005C000F9027608031C760FE62AE72AFA02770872
:1005D000031C770FEC2AED2AFB027B08F7007A0850
:1005E000F6007908F5007808F4008030F3068030D2
:1005F000F70677087302031D072B76087202031DA6
:10060000072B75087102031D072B7408700203186D
:100610000A2B0B2B0D2B03100E2B03140800F800D4
:1006200078080319142B152B292BF31F182B192BC2
:10063000292B7009FA007109FB007209FC0073098B
:10064000FD00FA0A0319FB0A0319FC0A0319FD0A43
:10065000312B7308FD007208FC007108FB00700864
:10066000FA007308720471047004031D382B392BCF
:10067000422B0030F3000030F2000030F100003077
:10068000F000C22B9630F900502B0130F9070130F1
:100690000310FD0CFC0CFB0CFA0CFF3E031D482B59
:1006A000FE307D05031D552B562B452B702B01303D
:1006B000F9070130FA07003003180130FB0700305A
:1006C00003180130FC07003003180130FD0701302A
:1006D0000310FD0CFC0CFB0CFA0CFF3E031D682BF9
:1006E000FF307D05031D752B762B572B822B013098
:1006F000F9020130F4000310FA0DFB0DFC0DFD0DA5
:10070000F40B7B2BFC1B852B862B8C2B0230790268
:1007100003188B2B8C2B772B79188F2B902B982BE6
:10072000FF30FA05FF30FB057F30FC05FF30FD058B
:100730000310F90C7908F400F501F601F7011830FF
:100740000310F40DF50DF60DF70DFF3E031DA02B64
:100750007408FA047508FB047608FC047708FD04A5
:1007600078080319B42BB52BBA2BF31FB82BB92B70
:10077000BA2BFD177D08F3007C08F2007B08F1001E
:100780007A08F0000800FF30831603138500860105
:100790008801FB3087008113003083120313A3000C
:1007A0000030A2000030A1000030A0000A128A111F
:1007B000BB210A128A110A128A1138210A128A11DF
:1007C000003083120313051801300A128A11942194
:1007D0000A128A11710883120313BB007008BA0051
:1007E0003E30A300F930A200DB30A1002330A0008E
:1007F0003A08F0003B08F100F201F30100300A1260
:100800008A110F230A128A11730883120313A70097
:100810007208A6007108A5007008A4000A128A11C7
:10082000BA240A128A11831203132308BF00220874
:10083000BE002108BD002008BC003F08F3003E08B0
:10084000F2003D08F1003C08F0004130F700703044
:10085000F6000030F5000030F4000A128A116D2213
:100860000A128A110318352C362C3C2C83120313E0
:100870000614861006117D2C831203133F08F30023
:100880003E08F2003D08F1003C08F0004130F7005E
:100890007030F6000030F5000030F4000A128A11C2
:1008A0006D220A128A11031C562C572C782C4130C9
:1008B000F300C830F2000030F1000030F000831285
:1008C00003133F08F7003E08F6003D08F5003C081A
:1008D000F4000A128A116D220A128A11031C712C6B
:1008E000722C782C831203130610861406117D2CAB
:1008F00083120313061086100615851C802C812C8C
:100900008E2C01300A128A1141210A128A1180307C
:100910000A128A1151210A128A11E02B051D912C0D
:10092000922C9F2C01300A128A1141210A128A113D
:10093000FF300A128A1151210A128A11E02B851DFB
:10094000A22CA32CB02C00300A128A1141210A12C9
:100950008A1180300A128A1151210A128A11E02B61
:1009600000300A128A1151210A128A11E02B0A1250
:100970008A110028831203132308AD008030AD05CF
:100980002308A8002807B300A21FC72CC82CC92C15
:10099000331433080319CD2CCE2CDD2C330A031D60
:1009A000D22CD32CDB2C0030A3000030A20000306E
:1009B000A1000030A000A217E52C0030A3000030F9
:1009C000A2000030A1000030A00027088039AD0649
:1009D0002708A8002807B200A61FEF2CF02CF12C46
:1009E000321432080319F52CF62C052D320A031D9A
:1009F000FA2CFB2C032D0030A7000030A60000309D
:100A0000A5000030A400A6170D2D0030A70000306F
:100A1000A6000030A5000030A40032080319112DF3
:100A2000122D172D3308031D162D172D202D0030E4
:100A3000A3000030A2000030A1000030A000FB2F76
:100A40002008F00026080A128A116D210A128A1164
:100A5000710883120313B9007008B8003808A800A1
:100A6000A901AA01AB012B08B1002A08B00029088E
:100A7000AF002808AE003908A800A901AA01AB01FF
:100A80002B08B7002A08B6002908B5002808B400CA
:100A90002108F00025080A128A116D210A128A1114
:100AA000710883120313B9007008B8003808A80051
:100AB000A901AA01AB012808AE07290803110318F0
:100AC000013E0319642DAF072A0803110318013EE4
:100AD00003196B2DB0072B0803110318013E0319EE
:100AE000722DB1073908A800A901AA01AB01280895
:100AF000B407290803110318013E0319802DB50717
:100B00002A0803110318013E0319872DB6072B0885
:100B100003110318013E03198E2DB7072208F000B8
:100B200024080A128A116D210A128A11710883128F
:100B30000313B9007008B8003808A800A901AA0179
:100B4000AB012808AE07290803110318013E031959
:100B5000AA2DAF072A0803110318013E0319B12D6E
:100B6000B0072B0803110318013E0319B82DB10774
:100B70003908A800A901AA01AB012808B40729086F
:100B800003110318013E0319C62DB5072A080311E6
:100B90000318013E0319CD2DB6072B0803110318C6
:100BA000013E0319D42DB7070830A8000310AE0D7D
:100BB000AF0DB00DB10DA80BD62D2108F000240803
:100BC0000A128A116D210A128A1171088312031305
:100BD000B9007008B8003808A8003908A900AA01AF
:100BE000AB012808AE07290803110318013E0319B9
:100BF000FA2DAF072A0803110318013E0319012E2D
:100C0000B0072B0803110318013E0319082EB10782
:100C10002008F00025080A128A116D210A128A1193
:100C2000710883120313B9007008B8003808A800CF
:100C30003908A900AA01AB012808AE072908031149
:100C40000318013E0319252EAF072A0803110318C4
:100C5000013E03192C2EB0072B0803110318013E87
:100C60000319332EB1070830A8000310AE0DAF0DE5
:100C7000B00DB10DA80B352E2008F00024080A1283
:100C80008A116D210A128A11710883120313B900A7
:100C90007008B8003808A8003908A900AA01AB01FB
:100CA0002808AE07290803110318013E0319592E1D
:100CB000AF072A0803110318013E0319602EB0077D
:100CC0002B0803110318013E0319672EB1072108F1
:100CD000F00026080A128A116D210A128A11710881
:100CE00083120313B9007008B8003808A800390847
:100CF000A900AA01AB012808B407290803110318A9
:100D0000013E0319842EB5072A0803110318013E7A
:100D100003198B2EB6072B0803110318013E031984
:100D2000922EB7072208F00025080A128A116D21B9
:100D30000A128A11710883120313B9007008B800EF
:100D40003808A8003908A900AA01AB012808B4078F
:100D5000290803110318013E0319AF2EB5072A080D
:100D600003110318013E0319B62EB6072B08031111
:100D70000318013E0319BD2EB7072208F00026080C
:100D80000A128A116D210A128A1171088312031343
:100D9000B9007008B8003808A8003908A900AA01ED
:100DA000AB0108300310A80DA90DAA0DAB0DFF3E35
:100DB000031DD22E2808B407290803110318013E89
:100DC0000319E32EB5072A0803110318013E03197E
:100DD000EA2EB6072B0803110318013E0319F12E62
:100DE000B7072E08A8002F08A9003008AA0031086C
:100DF000AB0018300310AB0CAA0CA90CA80CFF3EDA
:100E0000031DFA2E2808B407290803110318013E10
:100E100003190B2FB5072A0803110318013E031904
:100E2000122FB6072B0803110318013E0319192FBF
:100E3000B7070830A8000310AE0DAF0DB00DB10D0F
:100E4000A80B1B2F33083207A800A901A90D2808F9
:100E5000823EB80029080318013EFF3EB9004D2F1D
:100E60000130A8000310B40DB50DB60DB70DA80BD9
:100E7000322FB11F3C2F3D2F3E2F34140130A800DC
:100E80000310AE0DAF0DB00DB10DA80B402FFF300C
:100E9000B8070318B90AFF30B907B61F502F512FF2
:100EA000302FB201B11F552F562F722FFF302E0554
:100EB000A800FF302F05A900FF303005AA007F30C1
:100EC0003105AB002B082A04290428040319692FD3
:100ED0006A2F6D2F0130B200722F341C702F712FCA
:100EE000722F6A2F32080319762F772FA82F01301F
:100EF000B407003003180130B50700300318013083
:100F0000B607003003180130B707371C882F892F28
:100F1000A82F3408A8003508A9003608AA00370809
:100F2000AB000130AC002B0DAB0CAA0CA90CA80C2B
:100F3000AC0B932F2B08B7002A08B6002908B50080
:100F40002808B4000130B8070318B90A0030B907FF
:100F50003908803AFF0080307F02031DB12FFF3037
:100F60003802031CB42FB52FC02F7F308312031318
:100F7000B7008030B6000030B5000030B400F12F6B
:100F8000831203133908803AFF0080307F02031D6B
:100F9000CB2F013038020318CE2FCF2FDB2F00309C
:100FA00083120313B7000030B6000030B5000030E4
:100FB000B400AD01F12F831203133808B300FF30E2
:100FC000B405FF30B5057F30B6050030B705331CDA
:100FD000EA2FEB2FEC2FB6173308A8000310280CCC
:100FE000B7002D08B7043708A3003608A20035085B
:100FF000A1003408A000080083010A128A11C32B43
:02400E007A3FF7
:00000001FF
